:100000006F80603F13000000130000001300000029
:100010001300000013000000130000001300000094
:100020001300000013000000130000001300000084
:08003000130000007300100032
:1000380000000000000000009A810000AA81000072
:10004800000000003C8300000000000000000000E9
:100058003E83000040830000000000000000000014
:1000680042830000000000004483000000000000FC
:1000780046830000488300004A8300004C83000048
:100088004E83000050830000A872000060730000D7
:1000980014740000C87400007C7500005C830000C4
:1000A8005E830000608300006283000064830000B8
:1000B80066830000688300006A8300006C83000088
:1000C8006E830000708300007283000030760000A9
:1000D800768300007E7800007A8300007C8300002D
:1000E8003E790000F67900006A7C000084830000F5
:1000F80086830000888300008A8300008C830000C8
:100108008E830000B46B0000786C00003C6D00002A
:1001180048770000988300009A8300009C830000C1
:10012800627F0000A0830000A2830000A483000077
:10013800A6830000A88300002A7D0000AC8300008D
:10014800046E0000C86E0000EA7D0000A27E000078
:10015800B6830000B8830000BA830000BC830000A7
:10016800BE830000C0830000C2830000C483000077
:10017800C6830000C8830000CA830000CEA5000023
:10018800CE830000D0830000D87100008A6F000081
:100198004E70000018710000DA8300002280000011
:1001A800DE830000E0830000E2830000E2800000BC
:1001B800E6830000E8830000EA830000EC83000087
:1001C800EE830000F0830000F2830000F483000057
:1001D8000000000000000000000000000000000017
:1001E8000000000000000000000000000000000007
:0801F8000000000000000000FF
:100200003D432A876373C3029377F700BDEFADE5E3
:10021000937606FF3D8ABA960CC34CC30CC74CC7F5
:100220004107E36BD7FE11E28280B306C3408A0622
:100230009702000096966780A6002307B700A306E2
:10024000B7002306B700A305B7002305B700A30432
:10025000B7002304B700A303B7002303B700A3022A
:10026000B7002302B700A301B7002301B700A30022
:10027000B7002300B700828093F5F50F93968500B1
:10028000D58D93960501D58D61B79396270097027A
:10029000000096968682E78086FA9680C1171D8FA9
:1002A0003E96E374C3F8A5B7011122CE00102326B1
:1002B000A4FE37F500E08328450037F500E093F809
:1002C000E8FF2322150183A881820965130505F43F
:1002D00033D5A802AA8601470325C4FEAA87014890
:1002E00037F500E03303F702B308D8029A98338356
:1002F000F60233B6F6029A85B387C8003E860CC96B
:1003000050C9B7F700E09843B7F700E0136707015B
:1003100098C3B7F700E09843B7F700E013671702F8
:1003200098C30100B7F700E0DC4313F717008547D7
:10033000E31AF7FEB7F700E09843B7F700E0799BC0
:1003400098C30100724405618280011106CE22CC5F
:100350000010AA8E2E8E32833685BA853E86C286DE
:100360004687F687A307F4FEF2872307F4FE9A87F1
:10037000A306F4FEAA872306F4FEAE87A305F4FEC7
:10038000B2872305F4FEB687A304F4FEBA872304DC
:10039000F4FE8347F4FE93068004014681453E85C2
:1003A000EF0090038347E4FE9306800401468145F5
:1003B0003E85EF0070028347D4FE93068004014619
:1003C00081453E85EF0050018347C4FE93068004BB
:1003D000014681453E85EF0030008347B4FE930619
:1003E0008004014681453E85EF00007F8347A4FEDF
:1003F00093068004014681453E85EF00E07D8347FA
:1004000094FE93068004014681453E85EF00C07C42
:10041000834784FE93068004014681453E85EF00B4
:10042000A07B8347440093068004014681453E85B6
:10043000EF00807A834704009306800401468145DB
:100440003E85EF006079834784009306800401466F
:1004500081453E85EF0040780100F240624405612D
:100460008280011106CE22CC00102326A4FE232474
:10047000B4FEB28736872313F4FEBA872312F4FE44
:1004800085450965EF805017B70705500D47238054
:10049000E700B70705500547A380E700B7070550F9
:1004A000035744FE2392E700B7070550035764FE45
:1004B0002393E700B70705500327C4FE98C7B70783
:1004C0000550032784FED8C7B7070550114723817D
:1004D000E700814513056005EF60C0631305600503
:1004E000EF60805F0100F2406244056182807971B3
:1004F00006D622D40018232EA4FC231704FE2316AC
:1005000004FE0327C4FDA54763E0E70C8327C4FD71
:1005100013972700E167938787FBBA979C438287ED
:10052000B7370140938707C083D74702C207C1830B
:100530002317F4FE69A8B707004083D74702C20714
:10054000C1832317F4FE61A0B707004093870740DB
:1005500083D74702C207C1832317F4FE8DA8B717BC
:1005600000409387078083D74702C207C1832317C0
:10057000F4FEB1A8B7170040938707C083D747029E
:10058000C207C1832317F4FE99A0B73701409387B0
:10059000074083D74702C207C1832317F4FE05A88B
:1005A000B7570140938707C083D74702C207C1836B
:1005B0002317F4FE29A8B757014083D74702C20783
:1005C000C1832317F4FE21A0231704FE0100B707FF
:1005D0000020138707048327C4FDBA9783C7070049
:1005E00013F7F70F9307F00F6317F7008357E4FE35
:1005F0002316F4FE2DA8B7070020138707048327CE
:10060000C4FDBA9783C7070093F7F70F3E85392BD0
:10061000AA8791EB8357E4FEB307F040C207C1837A
:100620002316F4FE29A08357E4FE2316F4FE831755
:10063000C4FE3E85B250225445618280011122CE13
:1006400000102326A4FE0327C4FEA54763E0E708A5
:100650008327C4FE13972700E167938707FEBA97A5
:100660009C438287B7370140938707C023920702D4
:10067000B9A8B70700402392070291A8B707004026
:10068000938707402392070299A0B71700409387EA
:1006900007802392070225A8B7170040938707C059
:1006A000239207022DA0B73701409387074023927A
:1006B000070231A8B7570140938707C0239207026A
:1006C00039A0B75701402392070211A00100010091
:1006D000724405618280397106DE22DC80002326A7
:1006E000A4FC2324B4FC2322C4FC232604FE91454D
:1006F0000325C4FCEF10B06BAA873E8713060008E1
:10070000DD67938587483A85EF50002F832784FC67
:10071000B1830327C4FCB307F74093B7170093F7DF
:10072000F70F3E8713061008DD67938587483A85E3
:10073000EF50802C832744FCB1830327C4FCB3070C
:10074000F74093B7170093F7F70F3E87130620087B
:10075000DD67938587483A85EF50002A0325C4FC5E
:10076000EF10506B832784FC93F7F70F93068004F8
:10077000014681453E858D21832744FC93F7F70F81
:1007800093068004014681453E85B9210327C4FCB8
:10079000A54763E0E7088327C4FC13972700E167B8
:1007A00093878700BA979C438287B7370140938726
:1007B00007C02324F4FE8DA0B70700402324F4FED5
:1007C000A1A8B7070040938707402324F4FEA9A0FF
:1007D000B7170040938707802324F4FE35A8B71786
:1007E0000040938707C02324F4FE3DA0B7370140A3
:1007F000938707402324F4FE05A0B7570140938751
:1008000007C02324F4FE09A8B75701402324F4FEAF
:1008100021A085472326F4FE832784FC13D7870075
:100820008D47631AF7008545B70716001385070C37
:10083000EF808009E5A8832784FC13D78700C5478C
:10084000631AF7008545B707180013850710EF8076
:10085000A007E9A8832784FC13D787009307200209
:10086000631AF7008545B7171A0013850780EF80D4
:10087000A0056DA8832784FC13D787009307300257
:10088000631AF7008545B7171A00138507C0EF8074
:10089000A00369A8832784FC13D78700930710035C
:1008A0006317F70085450565EF80000241A08327A7
:1008B00084FC13D7870093071007631AF700854558
:1008C000B707008013854700EF80000085A08327CD
:1008D00084FC13D7870093073008631AF700854517
:1008E000B707138013850701EF70107E81A083275F
:1008F00084FC13D7870093071009631AF700854516
:10090000B707158013850702EF70107C05A08327B9
:1009100084FC13D78700930730096319F7008545D6
:10092000B707158013850704EF70107A8327C4FE7C
:10093000ADEB85450545EF808050232E04FC232038
:1009400004FE231204FE9307C4FD3E85EF900002CF
:10095000231E04FCFD572310F4FE231104FE231F65
:1009600004FC230204FE9307C4FDBE85032584FE18
:10097000EF80E07A93050006032584FEEF90401592
:100980008545032584FEEF90200281460146894576
:10099000032584FEEF90001D8545032584FEEF901E
:1009A000A0000100F250625421618280797106D664
:1009B00022D40018232EA4FC232CB4FC8545054525
:1009C000EF80E04793068004054681450325C4FD7A
:1009D00021248327C4FD958313F7F70F8327C4FDD4
:1009E00093F7F70FFD8B93F7F70FBE853A85EF80EE
:1009F000200A232004FE232204FE232404FE2326AF
:100A000004FE8327C4FDFD8B0547B317F7002320A1
:100A1000F4FE232204FE832784FD2324F4FE85476D
:100A20002326F4FE930704FE3E85EF70702583278E
:100A3000C4FDFD8B89E75945EF60000ABDA08327FF
:100A4000C4FDF98B89E75D45EF600009B9A88327EC
:100A5000C4FD13F7F701894763E6E7006145EF60DE
:100A6000A007A1A08327C4FDF18B89E76545EF604E
:100A7000A00625A88327C4FD13F7F701914763E675
:100A8000E7006945EF6040050DA08327C4FD13F71B
:100A9000F701A54763E7E70013057002EF60C003A5
:100AA00029A013058003EF6020030100B2502254F7
:100AB00045618280011122CE00102326A4FEAE875C
:100AC000A305F4FE8347B4FE85CB8327C4FEBD8B0C
:100AD0000547B317F70093960701C1828327C4FE29
:100AE00013D75700B70700200A079387C704BA97A0
:100AF0009C43368798CB3DA08327C4FEBD8B05471A
:100B0000B317F70093960701C1828327C4FE13D75A
:100B10005700B70700200A079387C704BA979C437A
:100B20003687D8CB0100724405618280011122CE44
:100B300000102326A4FE8327C4FE958313F77700B5
:100B4000B70700200A079387C704BA979C439C47BE
:100B50000327C4FE7D8B85463397E600F98FB337B4
:100B6000F00093F7F70F3E8572440561828079713A
:100B700022D60018232EA4FC8327C4FD958393F767
:100B8000F70F9D8BA307F4FE8327C4FD93F7F70FA0
:100B9000FD8B2307F4FE0347F4FEB70700200A0786
:100BA0009387C704BA979C43D8478347E4FE85469A
:100BB000B397F600C207C1833E868346F4FEB707AB
:100BC00000208A069387C704B6979C43318FD8C705
:100BD0000100325445618280797106D622D4001812
:100BE000232EA4FC232CB4FCB2872328D4FCA30B13
:100BF000F4FC232004FE232204FE232404FE832786
:100C0000C4FD958393F7F70F9D8BA307F4FE83270D
:100C1000C4FD93F7F70FFD8B2307F4FE8347F4FE23
:100C200091E785451145EF80802191A80347F4FEA7
:100C300085476317F70085452145EF80402081A057
:100C40000347F4FE89476317F70085454145EF8068
:100C5000001F35A00347F4FE8D476318F700854554
:100C600013050002EF80A01D19A80347F4FE914769
:100C70006317F700854513050004EF80401C834788
:100C8000E4FE0547B317F700C207C1832310F4FE43
:100C9000032784FD85476317F702832704FDC207F6
:100CA000C183A183C207C18389E78D472322F4FE54
:100CB00011A8832704FDC207C183A183C207C18392
:100CC0002322F4FE832704FDC207C18393F7F70FA5
:100CD0002324F4FE0347F4FEB70700200A07938796
:100CE000C704BA979C43130704FEBA853E85EF708C
:100CF0009017032784FD85476319F7020347F4FE25
:100D0000B70700200A079387C704BA97944383471D
:100D1000E4FE0547B317F700C207C183034774FD1C
:100D20003A86BE853685EF70B0360100B250225447
:100D3000456182801D7186CEA2CC80102326A4FA44
:100D40002324B4FA85450325C4FAEF105006AA8778
:100D50003E871306D006DD679385C7543A85EF407A
:100D6000B049832784FAB337F00093F7F70F3E8733
:100D70001306F006DD679385C7543A85EF40D047E8
:100D8000832784FABD832315F4FE8357A4FE8507C9
:100D90003E87832784FAB3D7E7022314F4FE0325A2
:100DA000C4FAEF103007B7370140938707C02326F6
:100DB000F4FE0327C4FAA54763ECE7088327C4FAC7
:100DC00013972700E16793870703BA979C438287AD
:100DD000B7370140938707C02326F4FE95A8B707CD
:100DE00000402326F4FEADA0B707004093870740DC
:100DF0002326F4FEB1A8B717004093870780232667
:100E0000F4FEB9A0B7170040938707C02326F4FE6D
:100E100081A0B71700402326F4FE1DA8B717004095
:100E2000938707402326F4FE25A0B7370140938718
:100E300007402326F4FE29A8B7570140938707C02F
:100E40002326F4FE31A0B75701402326F4FE01000B
:100E5000232E04FC232004FE231204FE835784FE69
:100E60002310F4FE8357A4FE231EF4FC231104FE7A
:100E7000231F04FC230204FE9307C4FDBE85032543
:100E8000C4FEEF80C029054685450325C4FEEF80DA
:100E9000303D85450325C4FEEF90400ADD6703AE73
:100EA000475213874752032347001387475283282B
:100EB0008700138747520328C70013874752084B00
:100EC000138747524C4B13874752104F1387475293
:100ED000544F13874752185393874752DC53232AA2
:100EE000C4FB232C64FA232E14FB232004FD2322AD
:100EF000A4FC2324B4FC2326C4FC2328D4FC232AEA
:100F0000E4FC232CF4FC8327C4FA93F7F70F8A0739
:100F1000130704FFBA9783A747FC8D453E85EF5022
:100F2000703F8327C4FA8A07130704FFBA9783A781
:100F300047FC3E85EF50503A85450325C4FEEF80BF
:100F4000B0260100F640664425618280797106D69C
:100F500022D40018232EA4FC232CB4FC032784FDE8
:100F6000896793871771B337F70093F7F70F3E87B9
:100F700013065003DD679385475E3A85EF40D0271F
:100F8000B7370140938707C02326F4FE8327C4FDAB
:100F9000C183BD8B2547636EF70613972700E16772
:100FA00093878705BA979C438287B7370140938719
:100FB00007C02326F4FEB1A8B70700402326F4FE9D
:100FC00089A8B7070040938707402326F4FE91A025
:100FD000B7170040938707802326F4FE1DA8B71794
:100FE0000040938707C02326F4FE25A0B7370140B1
:100FF000938707402326F4FE29A8B757014093871B
:1010000007C02326F4FE31A0B75701402326F4FE83
:1010100001008327C4FE83D7C7022315F4FE0357BC
:10102000A4FE832784FD3307F7028967938707713E
:10103000B357F7022314F4FE8327C4FDA1838D8BDD
:1010400081EB8327C4FE035784FE239AE702A9A8F5
:101050008327C4FDA18313F7370085476319F70081
:101060008327C4FE035784FE239CE70235A8832709
:10107000C4FDA18313F7370089476319F70083275D
:10108000C4FE035784FE239EE70239A88327C4FDCC
:10109000A18313F737008D476318F7008327C4FE39
:1010A000035784FE2390E7040100B25022544561A7
:1010B00082805D7186C6A2C48008232EA4FA232CE8
:1010C000B4FA232AC4FA8327C4FBC1838D453E8525
:1010D000EF10E04DAA873E871306D00ADD6793859F
:1010E000475E3A85EF405011032744FB8967938799
:1010F0001771B337F70093F7F70F3E871306F00A1F
:10110000DD679385475E3A85EF40100F232E04FC80
:10111000232004FE231204FE232604FC232804FCBF
:10112000232A04FC232C04FC231504FE8327C4FB80
:10113000C183BD8B3E85EF10E04D8327C4FB93F741
:10114000F70F93068031014685453E85713485450C
:101150000545EF70D04EB7370140938707C023266F
:10116000F4FE8327C4FBC183BD8B2547636EF7065E
:1011700013972700E16793870708BA979C438287F4
:10118000B7370140938707C02326F4FEB1A8B707FD
:1011900000402326F4FE89A8B70700409387074044
:1011A0002326F4FE91A0B7170040938707802326DB
:1011B000F4FE1DA8B7170040938707C02326F4FE4E
:1011C00025A0B7370140938707402326F4FE29A8BE
:1011D000B7570140938707C02326F4FE31A0B757C5
:1011E00001402326F4FE01008327C4FB13D7C70068
:1011F0008D47631AF7008545B70716001385070C5E
:10120000EF70806C15AA8327C4FB13D7C700C547AE
:10121000631AF7008545B707180013850710EF70AC
:10122000A06A19AA8327C4FB13D7C700C947631A4A
:10123000F7008545B707180013850720EF70C068D1
:10124000E5A88327C4FB13D7C700CD47631AF7006F
:101250008545B707180013850730EF70E066E9A8E9
:101260008327C4FB13D7C70093072002631AF70034
:101270008545B7171A0013850780EF70E0646DA8E5
:101280008327C4FB13D7C70093073002631AF70004
:101290008545B7171A00138507C0EF70E06269A88B
:1012A0008327C4FB13D7C700930710036317F70006
:1012B00085450565EF70406141A08327C4FB13D7C6
:1012C000C70093071007631AF7008545B70700802A
:1012D00013854700EF70405F85A08327C4FB13D7B9
:1012E000C70093073008631AF7008545B7071380D6
:1012F00013850701EF70405D81A08327C4FB13D7DE
:10130000C70093071009631AF7008545B7071580D2
:1013100013850702EF70405B05A08327C4FB13D73A
:10132000C700930730096319F7008545B707158093
:1013300013850704EF70405903A78182832784FB3C
:10134000B357F702C1832315F4FE03A781828357A5
:10135000A4FE8507BE86832784FBB387F602B357B6
:10136000F7022314F4FE035784FE832744FB33075C
:10137000F702896793870771B357F7022313F4FEC7
:10138000835784FEFD17C207C1832310F4FE8357E1
:10139000A4FE231EF4FC231104FE231F04FC2302DD
:1013A00004FE9307C4FDBE850325C4FEEF703057CD
:1013B000930700072316F4FC85472317F4FC231832
:1013C00004FC835764FE2319F4FC8947231AF4FCB8
:1013D0008947231BF4FC231C04FC231D04FC8327E6
:1013E000C4FBA1838D8B9DE39307C4FCBE850325BD
:1013F000C4FEEF70B06AA1450325C4FEEF8010045F
:1014000091450325C4FEEF80301845A08327C4FB17
:10141000A18313F7370085476315F7029307C4FCD0
:10142000BE850325C4FEEF802001A1450325C4FE2F
:10143000EF809005930500400325C4FEEF809019CE
:10144000ADA08327C4FBA18313F73700894763143A
:10145000F7029307C4FCBE850325C4FEEF80E01BA2
:10146000A1450325C4FEEF80D00791450325C4FEA6
:10147000EF80B01B1DA88327C4FBA18313F737009F
:101480008D476314F7029307C4FCBE850325C4FE91
:10149000EF806036A1450325C4FEEF805009930517
:1014A00000400325C4FEEF80101D85450325C4FEC2
:1014B000EF80005585450325C4FEEF80E04E010016
:1014C000B640264461618280797106D622D4001824
:1014D000232EA4FC8327C4FDB337F00093F7F70F46
:1014E0003E8713061004DD679385C7673A85EF4092
:1014F000A0508327C4FD9C43BD8B0547B317F7005D
:1015000093960701C1828327C4FD9C4313D75700DC
:10151000B70700200A079387C704BA979C4336870A
:1015200098CB8327C4FDDC43BD8B0547B317F70079
:1015300093960701C1828327C4FDDC4313D757006C
:10154000B70700200A079387C704BA979C433687DA
:1015500098CB8327C4FDDC472326F4FE01008327B4
:10156000C4FE1387F7FF2326E4FEF5FB8327C4FDA3
:10157000DC43BD8B0547B317F70093960701C18283
:101580008327C4FDDC4313D75700B70700200A07A1
:101590009387C704BA979C433687D8CB8327C4FD6B
:1015A000DC472324F4FE0100832784FE1387F7FF22
:1015B0002324E4FEF5FB8327C4FD9C43BD8B054734
:1015C000B317F70093960701C1828327C4FD9C439C
:1015D00013D75700B70700200A079387C704BA97A5
:1015E0009C433687D8CB0100B2502254456182809B
:1015F000797106D622D40018232EA4FC8327C4FDBB
:10160000B337F00093F7F70F3E8713064005DD6709
:101610009385C7673A85EF40203E8327C4FDDC43AE
:10162000BD8B0547B317F70093960701C182832747
:10163000C4FDDC4313D75700B70700200A07938780
:10164000C704BA979C433687D8CB8327C4FD9C43F5
:10165000BD8B0547B317F70093960701C182832717
:10166000C4FD9C4313D75700B70700200A07938790
:10167000C704BA979C433687D8CB8327C4FDDC4781
:101680002326F4FE01008327C4FE1387F7FF2326D9
:10169000E4FEF5FB8327C4FD9C43BD8B0547B317D0
:1016A000F70093960701C1828327C4FD9C4313D79B
:1016B0005700B70700200A079387C704BA979C43CF
:1016C000368798CB8327C4FDDC472324F4FE010032
:1016D000832784FE1387F7FF2324E4FEF5FB83278B
:1016E000C4FDDC43BD8B0547B317F7009396070194
:1016F000C1828327C4FDDC4313D75700B7070020FE
:101700000A079387C704BA979C43368798CB8327E9
:10171000C4FDDC472322F4FE0100832744FE138727
:10172000F7FF2322E4FEF5FB0100B250225445618D
:101730008280797106D622D40018232EA4FCAE87AD
:10174000A30DF4FC8327C4FDB337F00093F7F70F24
:101750003E8713069006DD679385C7673A85EF409D
:10176000A0298327C4FD9C43BD8B0547B317F70011
:1017700093960701C1828327C4FD9C4313D757006A
:10178000B70700200A079387C704BA979C43368798
:10179000D8CB8347B4FD95CB8327C4FDDC43BD8BF9
:1017A0000547B317F70093960701C1828327C4FD4D
:1017B000DC4313D75700B70700200A079387C704F5
:1017C000BA979C43368798CB0DA88327C4FDDC438A
:1017D000BD8B0547B317F70093960701C182832796
:1017E000C4FDDC4313D75700B70700200A079387CF
:1017F000C704BA979C433687D8CB8327C4FDDC4700
:101800002326F4FE01008327C4FE1387F7FF232657
:10181000E4FEF5FB8327C4FD9C43BD8B0547B3174E
:10182000F70093960701C1828327C4FD9C4313D719
:101830005700B70700200A079387C704BA979C434D
:10184000368798CB8327C4FDDC472324F4FE0100B0
:10185000832784FE1387F7FF2324E4FEF5FB832709
:10186000C4FD9C43BD8B0547B317F7009396070152
:10187000C1828327C4FD9C4313D75700B7070020BC
:101880000A079387C704BA979C433687D8CB832728
:10189000C4FDDC43BD8B0547B317F70093960701E2
:1018A000C1828327C4FDDC4313D75700B70700204C
:1018B0000A079387C704BA979C43368798CB0100E1
:1018C000B250225445618280797106D622D4001824
:1018D000232EA4FC8327C4FDB337F00093F7F70F42
:1018E0003E8713065008DD679385C7673A85EF404A
:1018F000A010A30704FE8327C4FD9C43BD8B0547AE
:10190000B317F70093960701C1828327C4FD9C4358
:1019100013D75700B70700200A079387C704BA9761
:101920009C433687D8CB8327C4FDDC43BD8B05475A
:10193000B317F70093960701C1828327C4FDDC43E8
:1019400013D75700B70700200A079387C704BA9731
:101950009C43368798CB8327C4FDDC472324F4FEC1
:101960000100832784FE1387F7FF2324E4FEF5FBA1
:101970008327C4FD9C43BD8B0547B317F70093969F
:101980000701C1828327C4FD9C4313D75700B707C3
:1019900000200A079387C704BA979C43368798CBE1
:1019A0008327C4FDDC472322F4FE0100832744FE85
:1019B0001387F7FF2322E4FEF5FB8327C4FDDC43F6
:1019C0003E85EFF0AF96AA8781C78547A307F4FE4F
:1019D0008327C4FD9C43BD8B0547B317F70093963F
:1019E0000701C1828327C4FD9C4313D75700B70763
:1019F00000200A079387C704BA979C433687D8CB41
:101A00008327C4FDDC472320F4FE0100832704FE66
:101A10001387F7FF2320E4FEF5FB8347F4FE3E85A2
:101A2000B250225445618280797106D622D40018C2
:101A3000232EA4FCAE87A30DF4FC8327C4FDB3378B
:101A4000F00093F7F70F3E871306700ADD67938562
:101A5000C7673A85EF30507A930700F8A307F4FE82
:101A600009AA0347B4FD8347F4FEF98F93F7F70FF4
:101A700095CB8327C4FDDC43BD8B0547B317F70027
:101A800093960701C1828327C4FDDC4313D7570017
:101A9000B70700200A079387C704BA979C43368785
:101AA00098CB0DA88327C4FDDC43BD8B0547B31736
:101AB000F70093960701C1828327C4FDDC4313D747
:101AC0005700B70700200A079387C704BA979C43BB
:101AD0003687D8CB8347F4FE8583A307F4FE83279C
:101AE000C4FDDC472324F4FE0100832784FE138712
:101AF000F7FF2324E4FEF5FB8327C4FD9C43BD8B45
:101B00000547B317F70093960701C1828327C4FDE9
:101B10009C4313D75700B70700200A079387C704D1
:101B2000BA979C43368798CB8327C4FDDC47232292
:101B3000F4FE0100832744FE1387F7FF2322E4FE0F
:101B4000F5FB8327C4FD9C43BD8B0547B317F70006
:101B500093960701C1828327C4FD9C4313D7570086
:101B6000B70700200A079387C704BA979C433687B4
:101B7000D8CB8347F4FEE39607EE0325C4FDA933D3
:101B8000AA87FD17B337F00093F7F70F3E85B250E1
:101B9000225445618280397106DE22DC26DA80001B
:101BA0002326A4FCAE87A305F4FC8327C4FCB3372B
:101BB000F00093F7F70F3E871306000CDD6793855F
:101BC000C7673A85EF305063A30704FEA147230798
:101BD000F4FE8327C4FC9C43BD8B0547B317F70075
:101BE00093960701C1828327C4FC9C4313D75700F7
:101BF000B70700200A079387C704BA979C43368724
:101C0000D8CB8327C4FCDC472324F4FE01008327C0
:101C100084FE1387F7FF2324E4FEF5FB8327C4FC2F
:101C2000DC43BD8B0547B317F70093960701C182CC
:101C30008327C4FCDC4313D75700B70700200A07EB
:101C40009387C704BA979C43368798CB7DA8832790
:101C5000C4FC9C43BD8B0547B317F700939607015F
:101C6000C1828327C4FC9C4313D75700B7070020C9
:101C70000A079387C704BA979C433687D8CB832734
:101C8000C4FCDC472322F4FE0100832744FE1387B3
:101C9000F7FF2322E4FEF5FB8327C4FC9C43BD8BA6
:101CA0000547B317F70093960701C1828327C4FC49
:101CB0009C4313D75700B70700200A079387C70430
:101CC000BA979C43368798CB8327C4FCDC472320F4
:101CD000F4FE0100832704FE1387F7FF2320E4FEB0
:101CE000F5FB8347F4FE860793948701E1848327FD
:101CF000C4FCDC433E85EFE07FE3AA87E207E1878F
:101D0000C58FE207E187A307F4FE8347E4FE13874C
:101D1000F7FF2307E4FE85FF8327C4FC9C43BD8BAC
:101D20000547B317F70093960701C1828327C4FCC8
:101D30009C4313D75700B70700200A079387C704AF
:101D4000BA979C433687D8CB8327C4FCDC47232E25
:101D5000F4FC01008327C4FD1387F7FF232EE4FC66
:101D6000F5FB8347B4FCBE850325C4FCEFF07F9CE4
:101D70008347F4FE3E85F2506254D2542161828042
:101D8000011106CE22CC00102326A4FEAE87328796
:101D9000A305F4FEBA872305F4FE8327C4FEB337F8
:101DA000F00093F7F70F3E8713062029DD67938530
:101DB000C7673A85EF3050440325C4FEEFF0CFF0FB
:101DC0008327C4FE83C78700860793F7F70FBE8576
:101DD0000325C4FE91398347B4FEBE850325C4FEA6
:101DE000A1318347A4FEBE850325C4FE35390325F2
:101DF000C4FEEFF0EFFF0100F24062440561828013
:101E0000797106D622D40018232EA4FCAE87A30D28
:101E1000F4FC8327C4FDB337F00093F7F70F3E8738
:101E20001306402ADD679385C7673A85EF30D03CBB
:101E3000A30704FE0325C4FDEFF00FE98327C4FDCB
:101E400083C78700860793F7F70FBE850325C4FD78
:101E5000E13E8347B4FDBE850325C4FDF13603256D
:101E6000C4FDEFF0EFF80325C4FDEFF0EFE58327A5
:101E7000C4FD83C787008607E207E18793E7170061
:101E8000E207E18793F7F70FBE850325C4FD693E9E
:101E900085450325C4FD0133AA87A307F4FE032566
:101EA000C4FDEFF0EFF48347F4FE3E85B2502254B8
:101EB00045618280797106D622D400182326A4FEBB
:101EC000AE872322C4FE2320D4FE232EE4FCA305E8
:101ED000F4FE8327C4FEB337F00093F7F70F3E8775
:101EE0001306F02BDD679385C7673A85EF30D03056
:101EF000032704FE8327C4FDB307F740B337F00080
:101F000093F7F70F3E871306002CDD679385C767AD
:101F10003A85EF30702E8327C4FE032704FE98C352
:101F20008327C4FE0327C4FDD8C38327C4FE034709
:101F3000B4FE2384E7008327C4FE032744FED8C7EA
:101F4000C14605468545032504FEEFE0FFC8D1469E
:101F5000054685450325C4FDEFE01FC80100B250CA
:101F6000225445618280011122CE00102326A4FE56
:101F7000AE87A305F4FEE1670327C4FE0A07938733
:101F8000870ABA979C433E878347B4FEC207C18342
:101F90002316F7000100E1670327C4FE0A079387B1
:101FA000870ABA979C4383D78700C207C18393F7F8
:101FB0000708F5F3E1670327C4FE0A079387870A3A
:101FC000BA979C4383D7C7000100724405618280A1
:101FD000011122CE00102326A4FEAE872315F4FEA5
:101FE0008357A4FEA183C207C18393F6F70FE1676D
:101FF0000327C4FE0A079387870ABA979C433E8744
:1020000093970601C1832316F7000100E1670327B8
:10201000C4FE0A079387870ABA979C4383D7870031
:10202000C207C18393F70708F5F38357A4FE93F61D
:10203000F70FE1670327C4FE0A079387870ABA9759
:102040009C433E8793970601C1832316F700010046
:10205000E1670327C4FE0A079387870ABA979C4360
:1020600083D78700C207C18393F70708F5F3010000
:10207000724405618280011122CE00102326A4FE45
:10208000AE873287A305F4FEBA872305F4FEE16725
:102090000327C4FE0A079387870ABA979C433E87A3
:1020A0008347B4FEC207C1832316F7000100E1672E
:1020B0000327C4FE0A079387870ABA979C4383D7EE
:1020C0008700C207C18393F70708F5F3E167032789
:1020D000C4FE0A079387870ABA979C4383D7C70031
:1020E000E1670327C4FE0A079387870ABA979C43D0
:1020F0003E878347A4FEC207C1832316F700010071
:10210000E1670327C4FE0A079387870ABA979C43AF
:1021100083D78700C207C18393F70708F5F3E16708
:102120000327C4FE0A079387870ABA979C4383D77D
:10213000C7000100724405618280011122CE0010A7
:102140002326A4FEAE872322C4FE2320D4FEA305AB
:10215000F4FEE1670327C4FE0A079387870ABA974C
:102160009C433E878347B4FEC207C1832316F70012
:102170000100E1670327C4FE0A079387870ABA971D
:102180009C4383D78700C207C18393F70708F5F301
:10219000B9A0832744FE138717002322E4FE83C6D9
:1021A0000700E1670327C4FE0A079387870ABA97E7
:1021B0009C433E8793970601C1832316F7000100D5
:1021C000E1670327C4FE0A079387870ABA979C43EF
:1021D00083D78700C207C18393F70708F5F38327E6
:1021E00004FE1387F7FF2320E4FEC5F701007244C5
:1021F00005618280011122CE00102326A4FEAE8745
:102200002322C4FE2320D4FEA305F4FEE1670327A6
:10221000C4FE0A079387870ABA979C433E87834781
:10222000B4FEC207C1832316F7000100E16703274C
:10223000C4FE0A079387870ABA979C4383D787000F
:10224000C207C18393F70708F5F3E1670327C4FECC
:102250000A079387870ABA979C4383D7C70095A03C
:10226000E1670327C4FE0A079387870ABA979C434E
:10227000239607000100E1670327C4FE0A0793873E
:10228000870ABA979C4383D78700C207C18393F715
:102290000708F5F3E1670327C4FE0A079387870A57
:1022A000BA979C4383D7C70093960701C1828327BF
:1022B00044FE138717002322E4FE13F7F60F238052
:1022C000E700832704FE1387F7FF2320E4FEC9FB02
:1022D00001007244056182805D7186C6A2C48008D7
:1022E0002326A4FC2324B4FC2322C4FC2320D4FCF6
:1022F000232EE4FA232CF4FA232A04FBE1670327B4
:10230000C4FC0A079387870ABA979C433E85EF600F
:10231000904485450545EF609032032704FC930700
:102320003012631DF7000327C4FB93075012631795
:10233000F70085450545EF60205925A0032704FCDB
:1023400089679387A714631EF7000327C4FB896777
:102350009387C7146317F700854537152000EF6092
:10236000A0568327C4FC91E785450565EF60302DB5
:1023700025A00327C4FC85476317F7008545116531
:10238000EF60503011A80327C4FC89476316F7009B
:1023900085452165EF60102F832704FC93F7F70F25
:1023A00093068031054685453E85EFE0FF82832711
:1023B000C4FB93F7F70F93068031054685453E85AC
:1023C000EFE09F81032784FBC167F917630DF700D6
:1023D000832784FB93F7F70F9306803405468145E6
:1023E0003E85EFE06FFF032744FB9307F00F630D7B
:1023F000F700832744FB93F7F70F9306003101465C
:1024000085453E85EFE04FFD232E04FC232004FE8E
:10241000232204FE232404FE231604FE231E04FCB0
:1024200093074010231FF4FC231004FE032784FCB1
:1024300085476305F702832784FC81CF032784FC4B
:1024400089476303F702032784FC8D476304F7027F
:102450000DA8231104FE231204FE25A0231104FE5F
:1024600085472312F4FE31A889472311F4FE231275
:1024700004FE01A889472311F4FE85472312F4FEC8
:102480000100231704FE03A78182832744FCB3576E
:10249000F7022317F4FE03A78182832744FCB37756
:1024A000F70291E78357E4FEFD172317F4FE035765
:1024B000E4FE9307F00763F7E70093078003231711
:1024C000F4FE49A80357E4FE9307F00363F7E7001F
:1024D000930700032317F4FEB5A80357E4FEFD4756
:1024E00063F7E700930780022317F4FEA5A00357C4
:1024F000E4FEBD4763F7E700930700022317F4FEED
:1025000091A80357E4FE9D4763F6E700E1472317D0
:10251000F4FE89A00357E4FE8D4763F6E700C14748
:102520002317F4FE05A80357E4FE854763F6E7008A
:10253000A1472317F4FE39A88357E4FE81C7231768
:1025400004FE09A813067021DD6793858771014594
:10255000EF30804A8357E4FE2314F4FE93070020F3
:102560002313F4FE231504FE9D472316F4FEE167B2
:102570000327C4FC0A079387870ABA979C433E87C0
:102580009307C4FDBE853A85EF605024E1670327B9
:10259000C4FC0A079387870ABA979C4385453E8502
:1025A000EF6050320100B64026446161828079714B
:1025B00022D60018232EA4FC232CB4FC8547A307A5
:1025C000F4FE0327C4FD0A0793878194BA979C43BE
:1025D00099EB0327C4FD0A0793878194BA970327D1
:1025E00084FD98C315A00327C4FD0A07938781942F
:1025F000BA979C43032784FD6316F7008547A3071A
:10260000F4FE19A0A30704FE8347F4FE3E8532546E
:1026100045618280011106CE22CC00102326A4FE43
:102620008327C4FE81EB8545856713850780EF60AE
:1026300010016DA80327C4FE85476317F700854581
:102640000545EF6030045DA00327C4FE894763178A
:10265000F70085450945EF60F00249A80327C4FE4D
:102660008D476317F70085451145EF60B001BDA8A0
:102670000327C4FE91476317F70085452145EF60A6
:102680007000ADA00327C4FE95476317F70085458A
:102690004145EF60207F99A80327C4FE994763183E
:1026A000F700854513050002EF60C07D81A0032778
:1026B000C4FE9D476317F70085450965EF602078E4
:1026C00035A00327C4FEA1476318F70085453705E9
:1026D0000800EF60C07619A80327C4FEA54763175A
:1026E000F700854537051000EF6060750100F24086
:1026F000624405618280797122D60018232EA4FCE1
:10270000B7370140938707C02326F4FE231504FE44
:102710000327C4FDA54763ECE7088327C4FD13978F
:102720002700E1679387470BBA979C438287B737A7
:102730000140938707C02326F4FE95A8B707004001
:102740002326F4FEADA0B707004093870740232659
:10275000F4FEB1A8B7170040938707802326F4FE44
:10276000B9A0B7170040938707C02326F4FE81A0C5
:10277000B71700402326F4FE1DA8B7170040938723
:1027800007402326F4FE25A0B73701409387074072
:102790002326F4FE29A8B7570140938707C02326B4
:1027A000F4FE31A0B75701402326F4FE01000327B1
:1027B000C4FD0A0793870197BA9798438947631F17
:1027C000F7008327C4FE83D747021397070141838D
:1027D0008D47B357F7022315F4FE39A08327C4FEB3
:1027E00083D747022315F4FE8357A4FE3E85325457
:1027F00045618280797122D60018232EA4FCB73758
:102800000140938707C02326F4FE0327C4FDA54794
:1028100063ECE7088327C4FD13972700E1679387DC
:10282000C70DBA979C438287B7370140938707C08B
:102830002326F4FE95A8B70700402326F4FEADA09A
:10284000B7070040938707402326F4FEB1A8B717C7
:102850000040938707802326F4FEB9A0B7170040F5
:10286000938707C02326F4FE81A0B71700402326D4
:10287000F4FE1DA8B7170040938707402326F4FEF7
:1028800025A0B7370140938707402326F4FE29A8E7
:10289000B7570140938707C02326F4FE31A0B757EE
:1028A00001402326F4FE01008327C4FE2392070281
:1028B0000100325445618280011122CE001023268E
:1028C000A4FEAE87A305F4FE0100E1670327C4FE62
:1028D0000A0793874710BA979C4383D70700C2071C
:1028E000C18393F70708F5D3E1670327C4FE0A07FE
:1028F00093874710BA979C433E878347B4FEC2072D
:10290000C1832312F7000100724405618280011126
:1029100006CE22CC00102326A4FE2324B4FE2322BC
:10292000C4FE832784FEB337F00093F7F70F3E878A
:1029300013061004DD679385077B3A85EF30C00BE3
:1029400029A8832784FE138717002324E4FE83C766
:102950000700BE850325C4FE8537832744FE138701
:10296000F7FF2322E4FEF1FF0100F240624405611B
:102970008280011106CE22CC00102326A4FE23243F
:10298000B4FE832784FEB337F00093F7F70F3E873A
:1029900013060005DD679385077B3A85EF30C00598
:1029A00039A8832784FE138717002324E4FE838736
:1029B000070093F7F70FBE850325C4FEF53D832777
:1029C00084FE83870700F1FF0100F2406244056145
:1029D0008280011106CE22CC00102326A4FEAE87F1
:1029E000A305F4FEE1670327C4FE0A079387471097
:1029F000BA979C433E878347B4FE3E869305505268
:102A00003A85EF70C07F138701858327C4FEBA978C
:102A100083C7070081453E85EF40C00F8347B4FE62
:102A200081CF138701858327C4FEBA9783C7070028
:102A30003E85EF40600A19A8138701858327C4FEED
:102A4000BA9783C707003E85EF40E00A0100F240D5
:102A5000624405618280011122CE00102326A4FE6B
:102A60002324B4FEE1670327C4FE0A0793874710B7
:102A7000BA979C4383D70700C207C18393F7070225
:102A80008DC7E1670327C4FE0A0793874710BA97EB
:102A90009C4383D74700C207C18313F7F70F8327EF
:102AA00084FE2380E700854711A081473E8572445C
:102AB00005618280797106D622D40018232EA4FCE9
:102AC000232CB4FC232AC4FC2328D4FC032744FD74
:102AD000832704FD3D8F8327C4FDB207F98F93B789
:102AE000170093F7F70F3E871306A00ADD6793855B
:102AF000077B3A85EF205070832744FD13D787006A
:102B0000832704FDA183B307F74093B7170093F71A
:102B1000F70F3E871306B00ADD679385077B3A857A
:102B2000EF20906D832744FD93F7F70FE1460146B0
:102B300085453E85EFE04F8A832704FD93F7F70F25
:102B400093068004014681453E85EFE0EF88854588
:102B50000545EF60C02E032744FDC167FD17F98FBF
:102B60000D67130707386387E7200D6713070738DA
:102B70006369F7040567130757166381E71605674E
:102B800013075716636FF7001307F022638AE70CE9
:102B9000130760306381E710130760126388E7084A
:102BA00065A6096713078736638BE7160D6713075A
:102BB00007126387E71809671307A7146380E714F0
:102BC00061A615671307A738638EE72615671307F5
:102BD000A7386362F7021167130787386380E7201D
:102BE0001567130787126385E722116713074712DA
:102BF000638CE71A91AE19671307C7386388E72A11
:102C000019671307C7386368F70019671307671058
:102C10006384E72615AE1D671307E7106382E72C70
:102C20001D671307E7386387E72E39AEB707014002
:102C3000D44FB7070140370700FC7D17758FD8CFF9
:102C4000B7070140D843B70701406D9BD8C3B7070A
:102C50000140D843B707014013674700D8C3EDA42C
:102C6000B7070140D44FB7070140370700FC7D1775
:102C7000758FD8CFB7070140D44FB707014037074A
:102C80000004558FD8CFB7070140D843B70701409C
:102C90006D9BD8C355ACB7070140D44FB70701406F
:102CA000370700FC7D17758FD8CFB7070140D44F89
:102CB000B707014037070004558FD8CFB707014049
:102CC000D843B70701406D9BD8C3B7070140D8432D
:102CD000B707014013674700D8C3BDA4B707014039
:102CE000D843B70701405D9BD8C3B7070140D8431D
:102CF000B707014013678700D8C3B9A4B7070140DD
:102D0000D843B70701401377F7FCD8C3B707014092
:102D1000D843B707014013670701D8C335A4B707E5
:102D20000140D843B70701401377F7FCD8C3B70772
:102D30000140D843B707014013670703D8C329A44C
:102D4000B7070140D44FB70701403707FDFF7D1794
:102D5000758FD8CFB7070140D44F832744FDA18397
:102D600013970701B70703007D8FB7070140558F01
:102D7000D8CFD9AAB7070140D44FB70701403707CA
:102D8000FDFF7D17758FD8CFB7070140D44F83273C
:102D900044FDA18313970701B70703007D8FB70791
:102DA0000140558FD8CF4DA2B7070140D44FB70788
:102DB00001403707F4FF7D17758FD8CFB707014063
:102DC000D44F832744FDA18313972701B7070C0035
:102DD0007D8FB7070140558FD8CFBDA2B7070140FF
:102DE000D44FB70701403707F4FF7D17758FD8CF51
:102DF000B7070140D44F832744FDA18313972701D0
:102E0000B7070C007D8FB7070140558FD8CF2DAA8B
:102E1000B7070140D44FB70701403707D0FF7D17F0
:102E2000758FD8CFB7070140D44F832744FDA183C6
:102E300013974701B70730007D8FB7070140558FC3
:102E4000D8CF19A2B7070140D44FB70701403707C1
:102E5000D0FF7D17758FD8CFB7070140D44F832798
:102E600044FDA18313974701B70730007D8FB70753
:102E70000140558FD8CFC9A8B7070140D44FB70735
:102E80000140370740FF7D17758FD8CFB707014046
:102E9000D44F832744FDA18313976701B707C00070
:102EA0007D8FB7070140558FD8CF79A8B70701406C
:102EB000D44FB7070140370740FF7D17758FD8CF34
:102EC000B7070140D44F832744FDA18313976701BF
:102ED000B707C0007D8FB7070140558FD8CFADA091
:102EE000B7070140D44FB7070140370700FD7D17F2
:102EF000758FD8CFB7070140D44F832744FDA183F6
:102F000013978701B70700037D8FB7070140558FDF
:102F1000D8CF1DA8B7070140D44FB70701403707E6
:102F200000FD7D17758FD8CFB7070140D44F832799
:102F300044FDA18313978701B70700037D8FB7076F
:102F40000140558FD8CF01008327C4FD91E7854507
:102F50001165EF50D06E69A80327C4FD854763183B
:102F6000F700854537050200EF50D07151A00327C7
:102F7000C4FD89476318F700854537050400EF5005
:102F80007070BDA00327C4FD8D476318F700854509
:102F900037050800EF50106FA1A80327C4FD914723
:102FA0006318F700854537051000EF50B06D89A014
:102FB0000327C4FD95476318F700854513050004F2
:102FC000EF50506C35A00327C4FD99476318F700F4
:102FD000854513050008EF50F06A19A80327C4FDC2
:102FE0009D476317F700854513050010EF50906962
:102FF000232004FE232204FE232404FE232604FEB1
:10300000832784FD2320F4FE231204FE231304FEF1
:10301000231404FE231604FEB1472315F4FEE167D2
:103020000327C4FD0A0793874710BA979C433E873E
:10303000930704FEBE853A85EF603073E16703278E
:10304000C4FD0A0793874710BA979C4385453E8580
:10305000EF70E0140100B2502254456182804111AA
:1030600006C622C40008A146138601868145138541
:103070008199EF3060480100B240224441018280D2
:10308000411106C622C4000883A7C1860547638B89
:10309000E7006388070C0947638DE7000D47638FDE
:1030A000E702E9A083A781861387170023A4E1869E
:1030B00075A883A781861387170023A4E18603A739
:1030C0008186A54763F1E70AB70700209387C70405
:1030D0009C4B1167D8CB23A4018671A003A701875D
:1030E00085476314F7081305F008EFD03FA4AA87BB
:1030F000ADC31945EFF02FE0AA873E8783A78186ED
:103100001D8F9307600963F2E7061945EFF08FEE14
:1031100083A78186D3F717D05385F720EF00817EF0
:10312000E16703A6878483A6C784EFF00043AA87DC
:103130002E883E85C285EF00A165AA8713970701F7
:103140004183B70700202398E72E094723A8E1868B
:1031500029A81945EFF02FDAAA873E8723A4E18634
:1031600029A0010021A0010011A001000100B2402E
:10317000224441018280411106C622C4000883A76F
:10318000C1860947637CF7000D47639AE70019453C
:10319000EFF04FE6054723A8E18611A001000100EA
:1031A000B240224441018280011106CE22CC00109F
:1031B000232204FE83C75187638A070E09A8930759
:1031C00034FE0546BE851385419BEF20B05493071E
:1031D00034FEBE851D45EFF01F88AA87EDF3034737
:1031E00034FEA9476314F70C99472322F4FE130712
:1031F00044FE930784FE85463A86BE851385419B2F
:10320000EF308001930784FE138737000D46E16796
:10321000938507853A85EF10A179AA879DEB03A7CF
:10322000C1878947630DF706054723AEE1861385FD
:10323000419BEF207038AA872322F4FE930744FEB7
:1032400081463E86938501A51385419BEF20D07C66
:10325000B9A0930784FE138737000D46E167938575
:1032600047853A85EF10C174AA8795EB03A781873C
:1032700089476306F702054723ACE1861385419B26
:10328000EF209033AA872322F4FE930744FE814661
:103290003E869385019D1385419BEF20F077138532
:1032A000419BEF2070210547238AE1860100F2400F
:1032B000624405618280011106CE22CC0010AA87EB
:1032C0002E87A307F4FEBA872307F4FEB707002072
:1032D0009387C7049C4713070040D8CB0347E4FEFD
:1032E0008347F4FE3A86BE850945EFE0DFD8B7078D
:1032F00000209387C7049C471307004098CB010028
:10330000F240624405618280011106CE22CC001099
:10331000AA872324B4FE2322C4FEA307F4FEB70722
:1033200000209387C7049C4713070040D8CB8347EE
:10333000F4FE832644FE032684FEBE850945EFE0A5
:10334000DFDFB70700209387C7049C4713070040BF
:1033500098CB0100F240624405618280797106D603
:1033600022D40018AA87A30FF4FCB7070020938784
:10337000C7049C4713070040D8CB8347F4FD93E76D
:1033800007F893F7F70F1307C4FE89463A86BE8500
:103390000945EFE03FE6B70700209387C7049C4745
:1033A0001307004098CB8347D4FE3E85B250225489
:1033B00045618280797106D622D40018AA87232C11
:1033C000B4FC232AC4FCA30FF4FCB70700209387A6
:1033D000C7049C4713070040D8CB8347F4FD93E70D
:1033E00007F813F7F70F832744FD93861700930719
:1033F00044FE3E86BA850945EFE0DFDFB7070020CF
:103400009387C7049C471307004098CB232604FEEC
:103410003DA08327C4FE13871700832784FD93866E
:103420001700232CD4FC930604FF3697034747FF6D
:103430002380E7008327C4FE85072326F4FE832725
:10344000C4FE032744FDE3E6E7FC0100B25022542A
:1034500045618280011106CE22CC0010A30504FE36
:10346000A30704FE231604FE8357C4FE1387170028
:103470002316E4FE1307F00F6376F7008547A307D2
:10348000F4FE39A80145D93DAA87A305F4FE0545F8
:10349000EFC09FE10347B4FE93074002E316F7FC39
:1034A0008347F4FE3E85F24062440561828001114B
:1034B00006CE22CC0010930784FE1946BE854945EE
:1034C000D53D834794FEA2071397070141878347A1
:1034D00084FEC207C187D98F1397070141872390C4
:1034E000E1888347B4FEA20713970701418783470A
:1034F000A4FEC207C187D98F139707014187239183
:10350000E1888347D4FEA2071397070141878347C9
:10351000C4FEC207C187D98F139707014187239241
:10352000E1880100F240624405618280011106CE0B
:1035300022CC0010A30704FE5145EFC0FFD61308AC
:10354000F00F896793874702096713075702896657
:10355000938636023796980013060668814509451A
:10356000EFE09FD7C146054685451305A004EFD07F
:10357000AFE60145E533F93DAA8785C39306600EA2
:10358000E16713860794E1679385C79D0145EF20A6
:10359000204D8547A307F4FEC1A081451305C00750
:1035A000193B0545EFC05FD08145130590052133D8
:1035B0000966E5679385C7B21305E005B133854514
:1035C00013059005CD395145EFC01FCE13051002EC
:1035D0007133AA873E8785476301F7029306500F30
:1035E000E16713860794E1679385879F0145EF2084
:1035F00020478547A307F4FE85A0B9451305D007EA
:103600005D399305700A1305000475319305900A1E
:10361000130520044D318945130510046939B70796
:1036200000206167872707A127AAF72E010003471B
:10363000F4FE85476301F702814513053004EFF07E
:103640009FC7B70700209387472F6167872747A148
:10365000DCE3010011A001008347F4FE3E85F24047
:10366000624405618280011106CE22CC0010A307BE
:1036700004FEA30704FEF1A80347F4FEE1670A076E
:1036800093874712BA979C433E85EFD02FCAAA87EB
:103690003E8785476309F7048347F4FE9396270026
:1036A000138701AD36971843050793962700938734
:1036B00001ADB69798C383A781881307803E33571F
:1036C000F7028346F4FE8A06938701ADB6979C43C2
:1036D00063ECE7060347F4FE0A07938701AEBA9747
:1036E000094798C395A00347F4FE0A07938701AEE4
:1036F000BA97984389476309F70283A781882947C6
:103700003357F7028346F4FE8A06938701ADB697D6
:103710009C4363EBE7000347F4FE0A07938701AE7F
:10372000BA97054798C309A80347F4FE0A07938789
:1037300001AEBA9723A007000347F4FE0A07938758
:1037400001ADBA9723A007008347F4FE8507A307BE
:10375000F4FE0347F4FE8D47E3F0E7F20100F24088
:10376000624405618280011122CE00102326A4FE4E
:103770000327C4FE0A07938701AEBA979C433E8590
:10378000724405618280411122C6000823A001AE67
:10379000938701AE23A20700938701AE23A40700FD
:1037A000938701AE23A607000100324441018280C5
:1037B000797106D622D40018232EA4FC8327C4FDD9
:1037C000B337F00093F7F70F3E871306C008E167A1
:1037D000938587A13A85EF202022A30704FEA30743
:1037E00004FE2DA80347F4FEE1670A0793874712FA
:1037F000BA979C4393068004054681453E85EFD0E9
:10380000AFBD0347F4FE0A07938701AEBA9723A022
:1038100007008347F4FE8507A307F4FE0347F4FE81
:103820008D47E3F1E7FC0327C4FD23A4E1880100F1
:10383000B250225445618280397106DE22DC80005C
:103840002326A4FC8547A307F4FE231604FE2324A5
:1038500004FE232E04FC83D741893E87930700236F
:103860006316F700A5472324F4FE29A0A1472324CB
:10387000F4FE01008DA8930750FA2300F4FE83277D
:1038800084FE8A070327C4FCBA978397070093F73F
:10389000F70FA300F4FE832784FE8A070327C4FCE6
:1038A000BA97839727002313F4FE835764FEA183FE
:1038B000C207C18393F7F70F2301F4FE835764FE19
:1038C00093F7F70FA301F4FE930704FE1146BE859C
:1038D0001145EFF0CF830945EFC01F9D832784FE7C
:1038E000FD172324F4FE032784FE9307E00FE3F47F
:1038F000E7F813858199EF20204C2A87894763FFD9
:10390000E7028D47232EF4FC1307C4FD930704FE42
:1039100081463A86BE8513858199EF20F00F0347D3
:1039200014FE9307F00F6308F700034724FE930784
:10393000F00F6315F700A30704FE31A80545EFC09B
:10394000BF968357C4FE138717002316E4FE1307A0
:10395000F007E370F7FA8347F4FE3E85F2506254B5
:1039600021618280397106DE22DC80002326A4FCDE
:10397000A30704FE231604FE232404FE232E04FCC6
:1039800083D741893E87930700236316F700A54735
:103990002324F4FE29A0A1472324F4FE0100832759
:1039A00084FEFD172324F4FE29A203D7418993073F
:1039B000F02263EDE700832784FE8A070327C4FC17
:1039C000BA9703970700A547630FF70C930750FAC0
:1039D0002300F4FEC557A300F4FE832784FE8A0764
:1039E0000327C4FCBA97839707002313F4FE835779
:1039F00064FEA183C207C18393F7F70F2301F4FE8E
:103A0000835764FE93F7F70FA301F4FE930704FEB8
:103A10001146BE851145EFE09FEF231604FE138586
:103A20008199EF2060392A87894763F7E7048D473A
:103A3000232EF4FC1307C4FD930704FE81463A8647
:103A4000BE8513858199EF20207D834714FEA20750
:103A500093960701C186834724FE13970701418788
:103A6000832784FE8A070326C4FCB297558F42073A
:103A700041872391E70031A80545EFC0FF828357B6
:103A8000C4FE138717002316E4FE1307F007E3783C
:103A9000F7F80357C4FE9307000863F7E70085476C
:103AA000A307F4FE19A80100832784FEFD17232431
:103AB000F4FE832784FEE39A07EE8347F4FE3E85F7
:103AC000F250625421618280011106CE22CC001096
:103AD000A30704FE9307F4FEBE851145EFE0BFF790
:103AE0000347F4FE9307500A6316F7001385819984
:103AF000EF20801C8347F4FEBE8513858199EF205B
:103B0000E02F0100F240624405618280411122C62B
:103B1000000805472386E188010032444101828084
:103B2000011106CE22CC0010231704FE231604FE3A
:103B3000232004FE930750FA2302F4FEC557A30284
:103B4000F4FE9307200F2315F4FE8357A4FEA183F0
:103B5000C207C18393F7F70F2303F4FE8357A4FE34
:103B600093F7F70FA303F4FE930744FE1146BE85B7
:103B70001145EFE0DFD913858199EF20E0232A87F3
:103B8000894763F0E7048D472320F4FE130704FE02
:103B9000930744FE81463A86BE8513858199EF20BE
:103BA000A067834754FEA207139707014187834705
:103BB00064FEC207C187D98FC207C1872316F4FEEE
:103BC00031A80545EFC04FEE8357E4FE1387170079
:103BD0002317E4FE1307F007E37FF7F88357C4FECB
:103BE0003E85F240624405618280397106DE22DC46
:103BF0008000A30704FE054723A8E1889307C4FDBE
:103C00001307C004930620061306401F81453E8516
:103C1000EFE04FAA1305800CEFC00FE91307C4FDB6
:103C2000B7070020938507063A85EFC03073AA874F
:103C30006382070C23A80188916793862706916702
:103C40001386C7048967938507581145EFE09FE6FF
:103C500085451145EFE0FFD71305800CEFC0CFE499
:103C6000B74700001386C7B0B7470000938587ACFD
:103C70000D45EF108040EFF08FBE5D35AA873E877F
:103C8000239AE188B707002013850706EFF0DFBA13
:103C9000AA878DC79306701BE167138607ABE167A0
:103CA000938507B50145EF10B05B0146814501459D
:103CB000EF10A03C8547A307F4FE2DA8B70700200E
:103CC00013858708EFF01FCAAA878DC79306301C9B
:103CD000E167138607ABE1679385C7B60145EF102F
:103CE0003058014681450145EF1020398547A3072B
:103CF000F4FE0100B74700001386C7B0B7470000C5
:103D0000938587AC0D45EF10403791473EC49547EA
:103D10003EC299473EC09308900213088002930761
:103D200060021307B0049306900413068004A945AB
:103D30002545EFC08FE193068007996713860782B8
:103D4000B70700209385075EB70700201385075E3D
:103D5000EFC02FF18347F4FE3E85F250625421619B
:103D60008280011106CE22CC0010AA87A307F4FEA0
:103D7000B70700209387C704DC4713070008D8CB98
:103D80008347F4FEBE850545EFE0EF9DB7070020B1
:103D90009387C704DC471307000898CB0100F24063
:103DA000624405618280011106CE22CC0010AA87F0
:103DB00036872317F4FEAE872316F4FEB287231549
:103DC000F4FEBA872314F4FE83C74181C207C1837E
:103DD0000357E4FEB337F70093F7F70F3E87130658
:103DE000A008E167938587B83A85EF10F04083C754
:103DF0005181C207C1830357C4FEB337F70093F75D
:103E0000F70F3E871306B008E167938587B83A85B8
:103E1000EF10903E83C74181C207C1830357A4FEC0
:103E2000B337F70093F7F70F3E871306C008E16733
:103E3000938587B83A85EF10303C83C75181C2071C
:103E4000C183035784FEB337F70093F7F70F3E871C
:103E50001306D008E167938587B83A85EF10D0390B
:103E600083A7818905476376F7000D476369F710DB
:103E700061A01305A002F53581450545EFE0AF8E41
:103E80008357E4FE93F7F70F890793F7F70FBE8583
:103E90000545EFE04F8D81450545EFE0CF8C835719
:103EA000A4FE93F7F70F890793F7F70FBE85054533
:103EB000EFE06F8B1305B0026D3581450545EFE0EE
:103EC0008F8A8357C4FE93F7F70F850793F7F70F91
:103ED000BE850545EFE02F8981450545EFE0AF88B8
:103EE000835784FE93F7F70F850793F7F70FBE8587
:103EF0000545EFE04F8761A01305A0029D35814580
:103F00000545EFE04F868357E4FE93F7F70F8507EB
:103F100093F7F70FBE850545EFE0EF848145054532
:103F2000EFE06F848357A4FE93F7F70F850793F7AD
:103F3000F70FBE850545EFE00F831305B002153579
:103F400081450545EFE02F828357C4FE93F7F70FB5
:103F5000890793F7F70FBE850545EFE0CF808145D0
:103F60000545EFE04F80835784FE93F7F70F8907ED
:103F700093F7F70FBE850545EFD0FFFE010013054F
:103F8000C002EFF01FDE0100F24062440561828052
:103F9000797106D622D400189307C4FD3E85EF1030
:103FA00010318547231EF4FC83C74181C207C183BA
:103FB000231FF4FC83C75181C207C1832310F4FE81
:103FC00083A701810547638AE70099EF9947230199
:103FD000F4FEA147A301F4FE09A8A1472301F4FEC2
:103FE000C147A301F4FE11A00100B7470000938769
:103FF00007472324F4FEB747000093876701232671
:10400000F4FE9307C4FD3E85EF1010300100B2505E
:10401000225445618280011106CE22CC001083C754
:1040200041813E8783C75181B307F7022326F4FEFF
:10403000B70700209387C704DC474147D8CB83C725
:104040004181C207C183FD1713970701418383C7CD
:104050005181C207C183FD17C207C183BE863A865C
:1040600081450145EFF03FD421A883D7E180BE858B
:104070000545EFD0FFF58327C4FEFD172326F4FE88
:104080008327C4FEFDF3B70700209387C704DC47EE
:10409000414798CB0100F2406244056182800111E2
:1040A00022CE00102326A4FE0327C4FE23ACE18801
:1040B00083A7818905476376F7000D476365F7029B
:1040C00011A8130700F8238AE180130700FAA38AD6
:1040D000E18011A8130700FA238AE180130700F892
:1040E000A38AE18001000100724405618280011110
:1040F00022CE0010AA872E872317F4FEBA87231634
:10410000F4FE0357E4FE2396E1800357C4FE239791
:10411000E1800100724405618280011106CE22CC4B
:104120000010AA87AE8632872317F4FEB6872316BF
:10413000F4FEBA872315F4FE83C74181C207C18309
:104140000357E4FEB337F70093F7F70F3E871306E4
:104150004014E167938587B83A85EF10F00983C76B
:104160005181C207C1830357C4FEB337F70093F7E9
:10417000F70F3E8713065014E167938587B83A8599
:10418000EF109007B70700209387C704DC4741472B
:10419000D8CB8356C4FE0356E4FE0357C4FE8357B0
:1041A000E4FEBA853E85EFF01FC08357A4FEBE85AE
:1041B0000545EFD0FFE1B70700209387C704DC4730
:1041C000414798CB0100F2406244056182807971D9
:1041D00006D622D40018AA87AE863287231FF4FCA5
:1041E000B687231EF4FCBA87A30DF4FC83C7418174
:1041F000C207C1830357E4FDB337F70093F7F70F06
:104200003E8713069019E167938587B83A85EF10CA
:10421000A07E83C75181C207C1830357C4FDB33752
:10422000F70093F7F70F3E871306A019E167938510
:1042300087B83A85EF10407CA30704FE230704FEED
:10424000B70700209387C704DC474147D8CB83A733
:1042500001810547638AE70C639F071EA30704FEDD
:1042600075A88347F4FE1397070141838357E4FD44
:10427000BA971395070141818347F4FE139707010D
:1042800041838357E4FDBA9713970701418383570E
:10429000C4FDA10793960701C1828357C4FD3A86E6
:1042A000BE85EFF05FB08307B4FD138707FE83463A
:1042B000F4FE6166BA878607BA97860713074672C7
:1042C000BA97B69783C70700A306F4FE230704FE38
:1042D00025A88347D4FE858B81CB83D7C180BE853B
:1042E0000545EFD0FFCE39A083D7E180BE850545D7
:1042F000EFD01FCE8347D4FE8583A306F4FE834709
:10430000E4FE85072307F4FE0347E4FE9D47E3F23E
:10431000E7FC8347F4FE8507A307F4FE0347F4FE9A
:104320009547E3F0E7F40DAAA30704FE39AA8347F3
:10433000F4FE1397070141838357E4FDBA97139561
:10434000070141818347F4FE139707014183835797
:10435000E4FDBA971397070141838357C4FDBD0756
:1043600093960701C1828357C4FD3A86BE85EFF05C
:104370009FA38307B4FD938607FE8347F4FE61671E
:104380009206130747133697BA9783C70700230689
:10439000F4FE8307B4FD938607FE8347F4FEA1076E
:1043A00061679206130747133697BA9783C70700CA
:1043B000A305F4FE230704FE25A88347C4FE858BCE
:1043C00081CB83D7C180BE850545EFD07FC039A0A2
:1043D00083D7E180BE850545EFD09FBF8347C4FEEC
:1043E00085832306F4FE8347E4FE85072307F4FE56
:1043F0000347E4FE9D47E3F2E7FC230704FE25A8FC
:104400008347B4FE858B81CB83D7C180BE850545AC
:10441000EFD01FBC39A083D7E180BE850545EFD022
:104420003FBB8347B4FE8583A305F4FE8347E4FEC8
:1044300085072307F4FE0347E4FE9D47E3F2E7FC0C
:104440008347F4FE8507A307F4FE0347F4FE9D4768
:10445000E3FFE7EC11A00100B70700209387C70432
:10446000DC47414798CB0100B2502254456182801D
:10447000797106D622D40018AA872E87232CC4FC73
:10448000231FF4FCBA87231EF4FC83C74181C207B3
:10449000C1830357E4FDB337F70093F7F70F3E8767
:1044A0001306D01EE167938587B83A85EF10C05494
:1044B00083C75181C207C1830357C4FDB337F700D7
:1044C00093F7F70F3E871306E01EE167938587B8E1
:1044D0003A85EF106052231704FE71A083A7018173
:1044E00005476381E704B5EB0357E4FEBA87860707
:1044F000BA9786071397070141838357E4FDBA975C
:1045000093960701C1828357E4FE032784FDBA977F
:10451000038707008357C4FD3A86BE853685EFF0D2
:104520001FCB2DA88357E4FE8E0713970701418305
:104530008357E4FDBA9793960701C1828357E4FE3F
:10454000032784FDBA97038707008357C4FD3A8683
:10455000BE853685EFF0BFC711A001008357E4FE8A
:1045600085072317F4FE8357E4FE032784FDBA97DB
:1045700083870700A5F70100B2502254456182806D
:10458000397106DE22DC8000AA872324C4FC36872A
:104590002317F4FCAE872316F4FCBA87A303F4FCBC
:1045A00083C74181C207C1830357E4FCB337F700D7
:1045B00093F7F70F3E871306B020E167938587B81E
:1045C0003A85EF10604383C75181C207C183035707
:1045D000C4FCB337F70093F7F70F3E871306C020EC
:1045E000E167938587B83A85EF100041834774FCF3
:1045F000B337F00093F7F70F3E871306D020E1673B
:10460000938587B83A85EF10203F834774FC93B7B2
:10461000B70093F7F70F3E871306E020E167938515
:1046200087B83A85EF10403D832784FC2326F4FEAB
:1046300085472324F4FE9307C4FD314681453E851A
:10464000EFB01FBC834774FC85073E879307C4FD0A
:104650003A86930500023E85EFB09FBA034774FC8B
:10466000A54763EBE70231A8032784FEBA878A07D0
:10467000BA9786072324F4FE834774FCFD17A3032F
:10468000F4FC834774FCEDF30327C4FE832784FE08
:10469000B367F7022326F4FE9307C4FD8325C4FE07
:1046A0003E85EF10D06E9306C4FD0357C4FC8357BC
:1046B000E4FC3686BA853E85EFF09FDB0100F250C0
:1046C000625421618280397106DE22DC8000AA8773
:1046D0002324C4FC36872317F4FCAE872316F4FC8E
:1046E000BA87A303F4FC83C74181C207C183035780
:1046F000E4FCB337F70093F7F70F3E871306202348
:10470000E167938587B83A85EF10002F83C7518101
:10471000C207C1830357C4FCB337F70093F7F70F01
:104720003E8713063023E167938587B83A85EF10FB
:10473000A02C834774FCB337F00093F7F70F3E8744
:1047400013064023E167938587B83A85EF10C02AA6
:10475000834774FC93B7B70093F7F70F3E871306B0
:104760005023E167938587B83A85EF10E0288327C7
:1047700084FC2326F4FE85472324F4FE9307C4FD1E
:10478000314681453E85EFB0BFA7034774FC9307D0
:10479000C4FD3A86930500023E85EFB07FA603472D
:1047A00074FCA54763EBE70231A8032784FEBA87B0
:1047B0008A07BA9786072324F4FE834774FCFD1703
:1047C000A303F4FC834774FCEDF3832784FE0327E3
:1047D000C4FEB377F7022326F4FE9307C4FD8325B6
:1047E000C4FE3E85EF10106C9306C4FD0357C4FC55
:1047F0008357E4FC3686BA853E85EFF07FC701001B
:10480000F2506254216182805D7186C6A2C4A6C244
:1048100080082328C4FA232AD4FABA863E87AA87B6
:10482000231FF4FAAE87231EF4FAB687A30DF4FA19
:10483000BA87230DF4FA83C74181C207C1830357A6
:10484000E4FBB337F70093F7F70F3E871306C02555
:10485000E167938587B83A85EF10001A83C75181C5
:10486000C207C1830357C4FBB337F70093F7F70FB1
:104870003E871306D025E167938587B83A85EF1008
:10488000A0178347B4FBB337F00093F7F70F3E87C9
:104890001306E025E167938587B83A85EF10C015C8
:1048A0008347B4FB93B7970093F7F70F3E87130640
:1048B000F025E167938587B83A85EF10E0138347C9
:1048C000A4FBB337F00093F7F70F3E8713060026DB
:1048D000E167938587B83A85EF1000128347A4FB00
:1048E00093B7770093F7F70F3E8713061026E1671B
:1048F000938587B83A85EF102010832704FB03289F
:1049000044FB2320F4FE232204FFE16703A8C7C26F
:1049100083A787C22324F4FE232604FF9307C4FC45
:10492000454681453E85EFB0BF8D0347B4FB8347C5
:10493000A4FBBA9789073E879307C4FC3A86930580
:1049400000023E85EFB0DF8B3DA0E16703A607C301
:1049500083A647C3032584FE8325C4FEEFD0F03F22
:10496000AA872E882324F4FE232604FF8347B4FB62
:10497000FD17A30DF4FA8347B4FBE1FB032504FE06
:10498000832544FEEFE05053AA84032584FE83254B
:10499000C4FEEFE07052AA87B3C7F4023E85EFE091
:1049A0001069AA872E88032684FE8326C4FE3E85CE
:1049B000C285EFD0903AAA872E883E86C28603250C
:1049C00004FE832544FEEFE0A01EAA872E88232044
:1049D000F4FE232204FF0347A4FB9307C4FCBA861A
:1049E000832504FE032644FE3E85EF1030599306CE
:1049F000C4FC0357C4FB8357E4FB3686BA853E8567
:104A0000EFF01FA70100B640264496446161828002
:104A10005D7186C6A2C480082A8E2E832324C4FC1E
:104A20003685BA853E86C2864687F2872317F4FC10
:104A30009A872316F4FCAA872313F4FCAE8723126B
:104A4000F4FCB2872311F4FCB6872310F4FCBA8778
:104A5000A30FF4FA83C74181C207C1830357E4FC63
:104A6000B337F70093F7F70F3E871306B02BE167D4
:104A7000938587B83A85EF00307883C75181C207A4
:104A8000C1830357C4FCB337F70093F7F70F3E8792
:104A90001306C02BE167938587B83A85EF00D07580
:104AA000832784FCB337F00093F7F70F3E87130694
:104AB000D02BE167938587B83A85EF00F073232602
:104AC00004FE232404FE231304FE231204FE2320E9
:104AD00004FE232E04FCB70700209387C704DC479D
:104AE0004147D8CB0357E4FC835724FCBA97C2074D
:104AF000C183FD171396070141820357C4FC8357F6
:104B000004FCBA97C207C183FD1793960701C182BF
:104B10000357C4FC8357E4FCBA853E85EFF0AFA889
:104B2000232404FE19A2035744FC832784FE330781
:104B3000F702835704FCB357F702232EF4FC232615
:104B400004FEC9A8035764FC8327C4FE3307F70299
:104B5000835724FCB357F7022320F4FE035764FC69
:104B60008327C4FD3307F702832704FEBA97032780
:104B700084FCBA9783C707002312F4FE8347F4FB33
:104B8000B5E3835744FE8D83C207C183AE07231369
:104B9000F4FE835744FE8983C207C1839607C20788
:104BA000C18793F7077E139707014187831764FE38
:104BB000D98FC207C1872313F4FE835744FE8D8328
:104BC000C207C183FD8B139707014183835764FE9E
:104BD000D98F2313F4FE835764FEBE850545EFD0BD
:104BE0002FBF25A08347F4FBC207C183035744FEB0
:104BF0006377F70081450545EFD08FBD39A0C167C8
:104C00009385F7FF0545EFD0AFBC8327C4FE85072A
:104C10002326F4FE835724FC0327C4FEE364F7F243
:104C2000832784FE85072324F4FE835704FC03278F
:104C300084FEE36AF7EEB70700209387C704DC47DA
:104C4000414798CB0100B640264461618280411102
:104C500006C622C400081308F00FC167F9170567DC
:104C60001307F70285669386D60237A64A04130611
:104C7000062081450545EFD02FE6C1460146854512
:104C800013057006EFB05FF5C14601468545130573
:104C90007002EFB07FF4C146054685451305400616
:104CA000EFB09FF3C1460546854513050006EFB0FA
:104CB000BFF283A781893E85EFF06FBE03D7C18025
:104CC00083D7E180BE853A85EFF06FC2B707002039
:104CD0009387C704DC4313070008D8CB2945EFB0FE
:104CE000AFDCB70700209387C704DC431307000835
:104CF00098CB13058007EFB02FDBB7070020938711
:104D0000C704DC474147D8CB4545EFF08F851305F5
:104D10008007EFB06FD91305100BEFF08F84854536
:104D20000545EFD04FA49305C0020545EFD0AFA3D2
:104D30009305D0020545EFD00FA31305200BEFF02C
:104D40004F8285450545EFD00FA29305C00205456A
:104D5000EFD06FA19305D0020545EFD0CFA013058A
:104D6000300BEFF00F8085450545EFD0CF9F9305C1
:104D7000C0020545EFD02F9F9305D0020545EFD027
:104D80008F9E85450545EFD00F9E9305C0020545D2
:104D9000EFD06F9D9305D0020545EFD0CF9C130552
:104DA000400BEFE01FFC9D450545EFD0CF9B130561
:104DB000000CEFE01FFB9305200A0545EFD0AF9AEA
:104DC00089450545EFD02F9A930540080545EFD05A
:104DD0008F991305100CEFE0DFF89305500C054593
:104DE000EFD06F981305200CEFE0BFF7A9450545FC
:104DF000EFD06F9781450545EFD0EF961305300C46
:104E0000EFE03FF69305A0080545EFD0CF95930559
:104E1000A0020545EFD02F951305400CEFE07FF47D
:104E20009305A0080545EFD00F949305E00E0545C6
:104E3000EFD06F931305500CEFE0BFF2B945054575
:104E4000EFD06F9213056003EFE0BFF183A7818974
:104E500005476380E70281CB09476381E7020D477D
:104E60006384E70205A89305000C0545EFD0AF8FDA
:104E700015A081450545EFD00F8F29A89305000A9D
:104E80000545EFD04F8E39A0930500060545EFD0BC
:104E90008F8D01001305000EEFE0BFECBD45054509
:104EA000EFD06F8CE9450545EFD0EF8BBD4505454B
:104EB000EFD06F8BE1450545EFD0EF8A9305F00207
:104EC0000545EFD04F8A930580020545EFD0AF89A5
:104ED000930500020545EFD00F8993052002054593
:104EE000EFD06F88FD450545EFD0EF87ED450545CF
:104EF000EFD06F87930530020545EFD0CF8693053D
:104F000070030545EFD02F8681450545EFD0AF856D
:104F10009D450545EFD02F8589450545EFD0AF84E8
:104F2000C1450545EFD02F841305100EEFE07FE358
:104F3000BD450545EFD02F83ED450545EFD0AF8248
:104F4000BD450545EFD02F82DD450545EFD0AF814A
:104F5000930530030545EFD00F819305C002054549
:104F6000EFD06F80930590020545EFC0DFFF9305FA
:104F7000E0020545EFC03FFF930500030545EFC084
:104F80009FFE930500030545EFC0FFFD93059003C9
:104F90000545EFC05FFD9305F0030545EFC0BFFC7D
:104FA00081450545EFC03FFC9D450545EFC0BFFB72
:104FB0008D450545EFC03FFBC1450545EFC0BFFA34
:104FC0001305A002EFE0FFD981450545EFC0BFF909
:104FD00089450545EFC03FF981450545EFC0BFF85C
:104FE000930520080545EFC01FF81305B002EFE058
:104FF0005FD781450545EFC01FF78D450545EFC0DB
:105000009FF681450545EFC01FF69305300805451D
:10501000EFC07FF51305000FEFE0BFD485450545D0
:10502000EFC07FF41305600FEFE0BFD38145054566
:10503000EFC07FF31305A003EFE0BFD29545054510
:10504000EFC07FF213059002EFE0BFD1B707002059
:105050009387C704DC47414798CBEFE0DFFBEFE0E5
:105060003FF30100B240224441018280411122C637
:1050700000080100324441018280011122CE00105B
:105080002326A4FE2324B4FE2322C4FE0327C4FE49
:1050900023AEE188832744FE81C7832744FE29A0ED
:1050A000B75700009387C70623AEF180832784FE9D
:1050B00081C7832784FE29A0B75700009387C706BE
:1050C00023ACF1800100724405618280411122C647
:1050D0000008B71702409843B7170240136717003C
:1050E00098C3B7170240D443B71702403707FFF8F9
:1050F000758FD8C3B71702409443B71702403707DC
:10510000F7FE7D17758F98C3B71702409443B71702
:1051100002403707FCFF7D17758F98C3B717024011
:10512000D443B7170240370781FF7D17758FD8C367
:10513000B717024037079F0098C70100324441016A
:105140008280797106D622D40018232EA4FCEFF0B9
:10515000FFF7232604FE232404FEB71702409443DE
:10516000B71702404167558F98C3B717024098435D
:10517000B7070200F98F2324F4FE8327C4FE8507B6
:105180002326F4FE832784FE91E70327C4FE856768
:10519000E31DF7FCB71702409843B7070200F98FE9
:1051A00089C785472324F4FE19A0232404FE03277E
:1051B00084FE85476312F71637170240B71702407F
:1051C0005843D8C337170240B71702405843D8C3D3
:1051D00037170240B71702405843D8C3B7170240E9
:1051E000D443B71702403707C1FF7D17758FD8C367
:1051F0000327C4FDB747950893870740631BF70053
:10520000B7170240D443B71702404167558FD8C340
:1052100055A80327C4FDB7172707938707E0631C2A
:10522000F700B7170240D443B717024037073900D9
:10523000558FD8C341A80327C4FDB7E7B8059387A6
:105240000780631CF700B7170240D443B71702402A
:1052500037072900558FD8C3B5A00327C4FDB7A7CA
:105260004A0493870720631CF700B7170240D44312
:10527000B717024037071D00558FD8C3A1A00327D9
:10528000C4FDB777DC02938707C0631CF700B7172C
:105290000240D443B717024037071100558FD8C3D7
:1052A00015A00327C4FDB7376E0193870760631B02
:1052B000F700B7170240D443B7170240370705007D
:1052C000558FD8C3B71702409443B717024037072A
:1052D0000001558F98C30100B71702409843B707E4
:1052E0000002F98FF5DBB7170240D843B717024029
:1052F000719BD8C3B7170240D843B7170240136752
:105300002700D8C30100B7170240DC4313F7C700DA
:10531000A147E31AF7FE11A001A0B2502254456143
:105320008280011106CE22CC00102326A4FE032782
:10533000C4FE23A4E182EFF07FD90325C4FEEFF081
:105340005FE0EF10B0050100F24062440561828029
:10535000411122C60008010001003244410182804F
:10536000011106CE22CC0010232604FE232404FEC5
:10537000232604FE2DA0232404FE01A8EFF05FFDE8
:10538000832784FE85072324F4FE032784FEC16758
:10539000E366F7FE8327C4FE85072326F4FE032772
:1053A000C4FE9307F00FE3F8E7FC0100F24062440B
:1053B00005618280411122C600080100324441018A
:1053C0008280011106CE22CC00102326A4FE832564
:1053D000C4FE0945EFD0EFD90100F24062440561F7
:1053E0008280130101D9232611262324812623221A
:1053F0009126801C232EA4D8232CB4D8232AC4D8C9
:105400002328D4D8231504FE231404FE231304FEFA
:10541000231204FE231104FE032584D9EFF0205843
:10542000AA87C207C1872313F4FEB767002083D77A
:10543000C7E599C7B76700209387C7E59C4B82975C
:1054400083C7118A93F7F70F6385074EB76700206C
:1054500083D7C7E563890746B76700209387C7E509
:10546000D447835724FE13970701418793170701F9
:10547000C1838507C207C183C207C1872311F4FE18
:1054800093170701C1830326C4D9BE8501458296BF
:10549000832784D92326F4FE032584D9EFF02050F6
:1054A000AA87C207C1872313F4FEB767002093873A
:1054B000C7E583D727003E87B76700209387C7E5F6
:1054C00083C76700B347F702C207C1872312F4FE00
:1054D00001008327C4FE138717002326E4FE838779
:1054E0000700E5FB231404FEA1A88327C4FEFD17D3
:1054F0002326F4FE8327C4FE038707009307F002E8
:10550000630AF7008327C4FE038707009307C005DB
:10551000631BF700835784FEC207C1838507C20758
:10552000C1832314F4FE835764FEC207C187C207F8
:10553000C183FD17C207C183C207C1872313F4FECD
:10554000835784FE139707014183854763E8E7008B
:10555000835764FEC207C187E3D907F8835764FE07
:10556000C207C18763C207028327C4FE85072326BB
:10557000F4FE130704EE0326C4FEE167938587C398
:105580003A85EFF0603D1DA8835784FEC207C183B2
:1055900081EF130704EE0326C4FEE167938547C439
:1055A0003A85EFF0603B19A8130704EE0326C4FE0A
:1055B000E167938587C33A85EFF0003A231504FE2F
:1055C00005A2231404FE59A0930704EE3E85EFF0D4
:1055D000003D2A87835784FEC207C183BE86835756
:1055E000A4FEC207C1833E86835744FEC207C1871B
:1055F000B307F602B6976367F706835784FEC207C0
:10560000C1833E878357A4FEC207C183BE868357EA
:1056100044FEC207C187B387F602BA97035784FED8
:1056200042074183BA86130704FFBA97038707EF3F
:10563000930704FFB6972388E7EA835784FEC207DF
:10564000C1838507C207C1832314F4FE835784FEF8
:10565000C207C1833E87835744FEC207C187E34523
:10566000F7F611A00100835784FEC207C183130718
:1056700004FFBA97238807EAB76700209387C7E536
:1056800003A8C700B76700209387C7E583C77700E3
:10569000139707014183835724FE93960701C18620
:1056A00093970601C1838507C207C183C207C187DB
:1056B0002311F4FE93970601C183B307F702C207D3
:1056C000C183130704EA3A86BE85014502988357D1
:1056D000A4FEC207C1838507C207C1832315F4FE58
:1056E0008357A4FEC207C183BE84930704EE3E85A0
:1056F000EFF0E02A2A87835744FEC207C187B357D9
:10570000F7028507E3EFF4EA130704EE032644D912
:10571000E167938547C53A85EFF00024B76700201D
:105720009387C7E503A8C700B76700209387C7E53D
:1057300083C77700139707014183835724FE93960D
:105740000701C18693970601C1838507C207C183FC
:10575000C207C1872311F4FE93970601C183B307E3
:10576000F702C207C183130704EE3A86BE850145DE
:105770000298832704D9638E071A231504FE05A215
:10578000231404FE59A0032504D9EFF040212A87F1
:10579000835784FEC207C183BE868357A4FEC20717
:1057A000C1833E86835744FEC207C187B307F60212
:1057B000B6976368F706835784FEC207C1833E87A6
:1057C0008357A4FEC207C183BE86835744FEC20727
:1057D000C187B387F602BA973E87832704D9BA9761
:1057E000035784FE42074183BA8603870700930765
:1057F00004FFB6972388E7EA835784FEC207C18374
:105800008507C207C1832314F4FE835784FEC207B1
:10581000C1833E87835744FEC207C187E345F7F63D
:1058200011A00100835784FEC207C183130704FF40
:10583000BA97238807EAB76700209387C7E503A8CC
:10584000C700B76700209387C7E583C77700139722
:1058500007014183835724FE93960701C1869397DE
:105860000601C1838507C207C183C207C18723110F
:10587000F4FE93970601C183B307F702C207C18301
:10588000130704EA3A86BE85014502988357A4FEB1
:10589000C207C1838507C207C1832315F4FE83575E
:1058A000A4FEC207C183BE84032504D9EFF0200FF4
:1058B0002A87835744FEC207C187B357F70285077B
:1058C000E3E0F4ECBDA0930704DA13060010814571
:1058D0003E85EFA0FF92B76700209387C7E59C47FE
:1058E0000325C4D98297832704D999CF130504DAF5
:1058F000032704D9832644D9032684D9E1679385F5
:1059000007C6EFF0600529A8130704DA832644D9F7
:10591000032684D9E1679385C7C73A85EFF0C003B2
:10592000B76700209387C7E59847930704DA3E8559
:10593000029701008320C126032481268324412667
:10594000130101278280411106C622C4000883C7C3
:10595000118A93F7F70F91CF9385018A0945EFD00C
:105960008F8F05469385018AB7670020138507E46A
:1059700055230100B240224441018280797106D64C
:1059800022D40018232EA4FC232CB4FC232AC4FC0C
:10599000232604FEA9A00100E167938747109C47D6
:1059A000930500043E85EF40B014AA87F5D7E16760
:1059B000938747109C47BE86832784FD1387170073
:1059C000232CE4FC83870700C207C183BE8536858C
:1059D000EF40300F8327C4FE85072326F4FE0327FC
:1059E000C4FE832744FDE348F7FA832744FD3E8540
:1059F000B250225445618280011106CE22CC0010A3
:105A0000AA872324B4FE2322C4FEA307F4FE8347FF
:105A1000F4FEB1E383C7C18293F7F70F8DCF83C73D
:105A2000218A91C301A083C7218A850713F7F70F45
:105A30002381E18AEF10C013EFF0DF978146032640
:105A400044FE832584FEE167138547C9EFF07F9903
:105A5000EFF01F91E5B70100F240624405618280DA
:105A6000011106CE22CC0010AA872324B4FE2322E3
:105A7000C4FE2320D4FEA307F4FE8347F4FE95E37F
:105A800083C7118A93F7F70F91CF832684FE0326ED
:105A900004FE832544FEE167138547CAEFF07F9437
:105AA00011A001000100F2406244056182800111F1
:105AB00022CE00102326A4FE8327C4FE23900700D5
:105AC0008327C4FE7D572391E7008327C4FE7D57BB
:105AD0002392E7008327C4FE7D572383E7008327B3
